{
  "contractName": "Voting",
  "abi": [
    {
      "constant": true,
      "inputs": [],
      "name": "noPlayers",
      "outputs": [
        {
          "name": "",
          "type": "uint256"
        }
      ],
      "payable": false,
      "stateMutability": "view",
      "type": "function",
      "signature": "0x35f40103"
    },
    {
      "constant": true,
      "inputs": [
        {
          "name": "",
          "type": "address"
        }
      ],
      "name": "voters",
      "outputs": [
        {
          "name": "",
          "type": "bool"
        }
      ],
      "payable": false,
      "stateMutability": "view",
      "type": "function",
      "signature": "0xa3ec138d"
    },
    {
      "constant": true,
      "inputs": [
        {
          "name": "",
          "type": "uint256"
        }
      ],
      "name": "players",
      "outputs": [
        {
          "name": "id",
          "type": "uint256"
        },
        {
          "name": "name",
          "type": "string"
        },
        {
          "name": "noVotes",
          "type": "uint256"
        },
        {
          "name": "nationalTeam",
          "type": "string"
        },
        {
          "name": "club",
          "type": "string"
        },
        {
          "name": "position",
          "type": "string"
        }
      ],
      "payable": false,
      "stateMutability": "view",
      "type": "function",
      "signature": "0xf71d96cb"
    },
    {
      "inputs": [],
      "payable": false,
      "stateMutability": "nonpayable",
      "type": "constructor",
      "signature": "constructor"
    },
    {
      "anonymous": false,
      "inputs": [
        {
          "indexed": true,
          "name": "_playerId",
          "type": "uint256"
        }
      ],
      "name": "votedEvent",
      "type": "event",
      "signature": "0xfff3c900d938d21d0990d786e819f29b8d05c1ef587b462b939609625b684b16"
    },
    {
      "constant": false,
      "inputs": [
        {
          "name": "_playerId",
          "type": "uint256"
        }
      ],
      "name": "vote",
      "outputs": [],
      "payable": false,
      "stateMutability": "nonpayable",
      "type": "function",
      "signature": "0x0121b93f"
    }
  ],
  "bytecode": "0x608060405234801561001057600080fd5b506101006040805190810160405280600f81526020017f56697267696c2076616e2044696a6b00000000000000000000000000000000008152506040805190810160405280600a81526020017f4e697a6f7a656d736b61000000000000000000000000000000000000000000008152506040805190810160405280600981526020017f4c69766572706f6f6c00000000000000000000000000000000000000000000008152506040805190810160405280600281526020017f43420000000000000000000000000000000000000000000000000000000000008152506102e3640100000000026401000000009004565b6101ef6040805190810160405280600c81526020017f4c696f6e656c204d6573736900000000000000000000000000000000000000008152506040805190810160405280600981526020017f417267656e74696e6100000000000000000000000000000000000000000000008152506040805190810160405280600981526020017f42617263656c6f6e6100000000000000000000000000000000000000000000008152506040805190810160405280600281526020017f52570000000000000000000000000000000000000000000000000000000000008152506102e3640100000000026401000000009004565b6102de6040805190810160405280601181526020017f437269737469616e6f20526f6e616c646f0000000000000000000000000000008152506040805190810160405280600881526020017f506f72747567616c0000000000000000000000000000000000000000000000008152506040805190810160405280600881526020017f4a7576656e7475730000000000000000000000000000000000000000000000008152506040805190810160405280600281526020017f4c570000000000000000000000000000000000000000000000000000000000008152506102e3640100000000026401000000009004565b610470565b60026000815480929190600101919050555060c0604051908101604052806002548152602001858152602001600081526020018481526020018381526020018281525060008060025481526020019081526020016000206000820151816000015560208201518160010190805190602001906103609291906103cb565b506040820151816002015560608201518160030190805190602001906103879291906103cb565b5060808201518160040190805190602001906103a49291906103cb565b5060a08201518160050190805190602001906103c19291906103cb565b5090505050505050565b828054600181600116156101000203166002900490600052602060002090601f016020900481019282601f1061040c57805160ff191683800117855561043a565b8280016001018555821561043a579182015b8281111561043957825182559160200191906001019061041e565b5b509050610447919061044b565b5090565b61046d91905b80821115610469576000816000905550600101610451565b5090565b90565b61074c8061047f6000396000f3fe608060405260043610610062576000357c0100000000000000000000000000000000000000000000000000000000900463ffffffff1680630121b93f1461006757806335f40103146100a2578063a3ec138d146100cd578063f71d96cb14610136575b600080fd5b34801561007357600080fd5b506100a06004803603602081101561008a57600080fd5b810190808035906020019092919050505061033c565b005b3480156100ae57600080fd5b506100b761045e565b6040518082815260200191505060405180910390f35b3480156100d957600080fd5b5061011c600480360360208110156100f057600080fd5b81019080803573ffffffffffffffffffffffffffffffffffffffff169060200190929190505050610464565b604051808215151515815260200191505060405180910390f35b34801561014257600080fd5b5061016f6004803603602081101561015957600080fd5b8101908080359060200190929190505050610484565b604051808781526020018060200186815260200180602001806020018060200185810385528a818151815260200191508051906020019080838360005b838110156101c75780820151818401526020810190506101ac565b50505050905090810190601f1680156101f45780820380516001836020036101000a031916815260200191505b50858103845288818151815260200191508051906020019080838360005b8381101561022d578082015181840152602081019050610212565b50505050905090810190601f16801561025a5780820380516001836020036101000a031916815260200191505b50858103835287818151815260200191508051906020019080838360005b83811015610293578082015181840152602081019050610278565b50505050905090810190601f1680156102c05780820380516001836020036101000a031916815260200191505b50858103825286818151815260200191508051906020019080838360005b838110156102f95780820151818401526020810190506102de565b50505050905090810190601f1680156103265780820380516001836020036101000a031916815260200191505b509a505050505050505050505060405180910390f35b600160003373ffffffffffffffffffffffffffffffffffffffff1673ffffffffffffffffffffffffffffffffffffffff16815260200190815260200160002060009054906101000a900460ff1615151561039557600080fd5b6000811180156103a757506002548111155b15156103b257600080fd5b60018060003373ffffffffffffffffffffffffffffffffffffffff1673ffffffffffffffffffffffffffffffffffffffff16815260200190815260200160002060006101000a81548160ff02191690831515021790555060008082815260200190815260200160002060020160008154809291906001019190505550807ffff3c900d938d21d0990d786e819f29b8d05c1ef587b462b939609625b684b1660405160405180910390a250565b60025481565b60016020528060005260406000206000915054906101000a900460ff1681565b6000602052806000526040600020600091509050806000015490806001018054600181600116156101000203166002900480601f0160208091040260200160405190810160405280929190818152602001828054600181600116156101000203166002900480156105365780601f1061050b57610100808354040283529160200191610536565b820191906000526020600020905b81548152906001019060200180831161051957829003601f168201915b505050505090806002015490806003018054600181600116156101000203166002900480601f0160208091040260200160405190810160405280929190818152602001828054600181600116156101000203166002900480156105da5780601f106105af576101008083540402835291602001916105da565b820191906000526020600020905b8154815290600101906020018083116105bd57829003601f168201915b505050505090806004018054600181600116156101000203166002900480601f0160208091040260200160405190810160405280929190818152602001828054600181600116156101000203166002900480156106785780601f1061064d57610100808354040283529160200191610678565b820191906000526020600020905b81548152906001019060200180831161065b57829003601f168201915b505050505090806005018054600181600116156101000203166002900480601f0160208091040260200160405190810160405280929190818152602001828054600181600116156101000203166002900480156107165780601f106106eb57610100808354040283529160200191610716565b820191906000526020600020905b8154815290600101906020018083116106f957829003601f168201915b505050505090508656fea165627a7a723058209d2b862f65db1e0792c4eedfde17919c96f1a29f364aae7edcec97deb2fa4d820029",
  "source": "pragma solidity ^0.5.0;\r\n\r\ncontract Voting {\r\n\r\n    struct Player {\r\n    \tuint id;\r\n    \tstring name;\r\n    \tuint noVotes;\r\n      string nationalTeam;\r\n      string club;\r\n      string position;\r\n    }\r\n\r\n    //spremanje igraca\r\n    mapping(uint => Player) public players;\r\n\r\n    //spremanje adresa sa kojih je glasano \r\n    mapping(address => bool) public voters;\r\n\r\n    //broj igraca\r\n    uint public noPlayers;\r\n\r\n\r\n    //funkcija za dodavanje igraca\r\n    function addPlayer (string memory _name, string memory _nationalTeam, string memory _club, string memory _position ) private {\r\n      noPlayers++;\r\n      players[noPlayers] = Player(noPlayers, _name, 0, _nationalTeam, _club, _position);\r\n    }\r\n\r\n    //konstruktor u kojem se dodaju igraci\r\n    constructor() public {\r\n      addPlayer(\"Virgil van Dijk\", \"Nizozemska\", \"Liverpool\", \"CB\");\r\n      addPlayer(\"Lionel Messi\", \"Argentina\", \"Barcelona\", \"RW\");\r\n      addPlayer(\"Cristiano Ronaldo\", \"Portugal\", \"Juventus\", \"LW\");\r\n      }\r\n\r\n    //azuriranje klijentske strane aplikacije kad dode do glasanja\r\n    event votedEvent(\r\n      uint indexed _playerId\r\n    );\r\n\r\n    function vote (uint _playerId) public {\r\n     //provjera da nije glasano sa adrese\r\n     require(!voters[msg.sender]);\r\n\r\n     //provjera \r\n     require(_playerId > 0 && _playerId <= noPlayers);\r\n      \r\n      // record that voter has voted\r\n      voters[msg.sender] = true;\r\n\r\n      // update candidate vote count\r\n      players[_playerId].noVotes ++;\r\n\r\n      //okidanje voted eventa\r\n      emit votedEvent(_playerId);\r\n    }\r\n\r\n  \r\n}\r\n",
  "sourcePath": "C:/Users/Lesar/voting/contracts/Voting.sol",
  "compiler": {
    "name": "solc",
    "version": "0.5.0+commit.1d4f565a.Emscripten.clang"
  },
  "schemaVersion": "3.0.1",
  "updatedAt": "2019-09-15T11:39:45.197Z",
  "devdoc": {
    "methods": {}
  },
  "userdoc": {
    "methods": {}
  }
}